:020000040800F2
:1000000010240020C9010008BF1900089F1600082D
:10001000BB19000851060008D524000800000000A4
:10002000000000000000000000000000E91B0008C4
:100030000514000800000000591A00082D1E0008D1
:10004000E3010008E3010008E3010008E301000800
:10005000E3010008E3010008E301000815140008AB
:10006000E3010008E30100089D140008E301000813
:10007000E3010008E3010008B5110008E3010008EE
:10008000E3010008E9110008E3010008E3010008AA
:100090008D240008E3010008E3010008E3010008E3
:1000A000E3010008E3010008E3010008E3010008A0
:1000B000ED1E0008E3010008E3010008E301000869
:1000C000E3010008E3010008E3010008E301000880
:1000D000E3010008ED20000881210008E301000889
:1000E00007140008E3010008E301000800F002F82B
:1000F00000F05AF80AA090E8000C82448344AAF168
:100100000107DA4501D100F04FF8AFF2090EBAE865
:100110000F0013F0010F18BFFB1A43F0010318473B
:10012000202E0000402E00000A444FF0000C10F872
:10013000013B13F0070408BF10F8014B1D1108BF65
:1001400010F8015B641E05D010F8016B641E01F805
:10015000016BF9D113F0080F1EBF10F8014BAD1C55
:100160000C1B09D16D1E58BF01F801CBFAD505E073
:1001700014F8016B01F8016B6D1EF9D59142D6D3CD
:10018000704700000023002400250026103A28BFF5
:1001900078C1FBD8520728BF30C148BF0B607047F9
:1001A0001FB51FBD10B510BD00F07CF81146FFF75C
:1001B000F7FF02F00FFA00F09AF803B4FFF7F2FF2E
:1001C00003BC02F097F9000009488047094800473E
:1001D000FEE7FEE7FEE7FEE7FEE7FEE7FEE7FEE7F7
:1001E000FEE7FEE704480549054A064B7047000054
:1001F0008D1E0008ED0000081010002010240020C3
:10020000101400201014002070474FF00002042941
:10021000C0F0128010F0030C00F01B80CCF1040C35
:10022000BCF1020F18BF00F8012BA8BF20F8022B69
:10023000A1EB0C0100F00DB85FEAC17C24BF00F80F
:10024000012B00F8012B48BF00F8012B70474FF03D
:10025000000200B5134694469646203922BFA0E816
:100260000C50A0E80C50B1F12001BFF4F7AF090722
:1002700028BFA0E80C5048BF0CC05DF804EB890013
:1002800028BF40F8042B08BF704748BF20F8022B56
:1002900011F0804F18BF00F8012B7047704770476E
:1002A00070477047754600F02BF8AE46050069466A
:1002B000534620F00700854618B020B5FFF792FF9F
:1002C000BDE820404FF000064FF000074FF0000857
:1002D0004FF0000B21F00701AC46ACE8C009ACE8D8
:1002E000C009ACE8C009ACE8C0098D46704710B53C
:1002F0000446AFF300802046BDE81040FFF75DBF25
:1003000000487047AC0F002021B1826842F0010222
:10031000826003E0826822F001028260704721B1AE
:10032000826842F48072826003E0826822F4807204
:100330008260704710B504461248844208D10121FA
:10034000401501F0D7FB0021601501F0D3FB17E049
:100350000D48844208D10121001501F0CBFB00219A
:10036000201501F0C7FB0BE00848844208D10121A9
:10037000C80301F0BFFB00214FF4004001F0BAFBBD
:1003800010BD00000024014000280140003C014055
:10039000014600208A6802F004020AB1012000E050
:1003A00000207047014600208A6802F008020AB166
:1003B000012000E00020704730B5024600200023F5
:1003C00050680F4C20400D790C6844EA0524204306
:1003D000506090680B4C2040D1E902542C434D7979
:1003E00044EA450420439060D06A20F470000C7CFD
:1003F000641EE4B2234340EA0350D06230BD0000E3
:10040000FFFEF0FFFDF7F1FFF0B504460D460020BA
:100410000021092D11DDE068A5F10A0606EB46076B
:10042000072606FA07F18843A5F10A0606EB4606F9
:1004300003FA06F10843E0600CE0206905EB45078C
:10044000072606FA07F1884305EB450603FA06F18D
:1004500008432061072A0FDA606B561E06EB8607F9
:100460001F2606FA07F18843561E06EB860605FA94
:1004700006F10843606322E00D2A0FDA206BD61FD5
:1004800006EB86071F2606FA07F18843D61F06EB00
:10049000860605FA06F10843206310E0E06AA2F13F
:1004A0000D0606EB86071F2606FA07F18843A2F120
:1004B0000D0606EB860605FA06F10843E062F0BD7C
:1004C000816841F008018160704721B1826842F47F
:1004D000A002826003E0826822F4A002826070477A
:1004E000816841F0040181607047000030B1074924
:1004F000096841F40001054A116005E003490968F3
:1005000021F40001014A11607047000008240140F5
:1005100000B591B001214FF4047001F0DBFA4FF403
:10052000004001F09BFA0220ADF8400000208DF859
:10053000430010A9424800F0D1FF4248FFF7FAFEFD
:1005400000214048FFF7E0FE00213F4800F074FE24
:1005500000213C48FFF7E3FE3A48FFF7EBFE3A483C
:1005600000F076FE0121480201F0B4FA01210846AC
:1005700001F080FA4FF4404001F070FA31484C30FD
:100580000590324806900020079002200890002035
:10059000099080200A9040000B9080000C90202051
:1005A0000D9000020E9000200F9005A9264800F043
:1005B0000BFF0020009001208DF804008DF805004D
:1005C0004FF4602002900020039002208DF810006C
:1005D00069461C48FFF7F0FE052301221146194821
:1005E000FFF712FF0523022211211648FFF70CFF27
:1005F00001211448FFF793FE01211248FFF784FE02
:100600001048FFF75DFF00BF0E48FFF7CBFE002844
:10061000FAD10C48FFF764FF00BF0A48FFF7B8FEA5
:100620000028FAD101210748FFF74FFF01210648B2
:1006300000F002FE0120FFF759FF11B000BD0000DD
:10064000000801400024014008000240D8020020B8
:1006500000BFFEE710B500F5D87303EB01131B686C
:1006600003F004031372137A53B900F5D87303EB44
:1006700001131B6840F2FF7404EA5353136009E04E
:1006800000F5D87303EB01131B686FF0604404EAB4
:10069000D303536000F5D87303EB01131B6803F019
:1006A0000203537200F5D87303EB01135B6803F088
:1006B0000F03937200F5D87303EB01135B681B0AF9
:1006C000D37400F5D87303EB01139B68D37200F564
:1006D000D87303EB01139B681C0A147300F5D873DD
:1006E00003EB01139B681C0C547300F5D87303EBE8
:1006F00001139B681B0E937300F5D87303EB011372
:10070000DB68D37300F5D87303EB0113DB681C0AB5
:10071000147400F5D87303EB0113DB681C0C5474DC
:1007200000F5D87303EB0113DB681B0E937421B93A
:10073000C36843F02003C36003E0036943F0200370
:10074000036110BD10B502460020936803F080637A
:10075000B3F1806F00D110E0936803F00063B3F150
:10076000006F01D1012008E0936803F08053B3F1DA
:10077000805F01D1022000E00420042874D002F53B
:10078000C07303EB00131B6803F0010402F5C07390
:1007900003EB00131C600B7A7BB94B7A0C8843EA9D
:1007A000445302F5C07404EB00142468234302F59B
:1007B000C07404EB0014236010E00B7A4C6843EA29
:1007C000C4034C7A234302F5C07404EB001424687C
:1007D000234302F5C07404EB001423608B7A03F00A
:1007E0000F038B7202F5C07303EB00135B6823F0F9
:1007F0000F0402F5C07303EB00135C6002F5C073D5
:1008000003EB00135B688C7A234302F5C07404EB9E
:10081000001463608B7B1C064B7B44EA03440B7B18
:1008200044EA0323CC7A234302F5C07404EB00149A
:10083000A3608B7C1C064B7C44EA03440B7C44EA9B
:100840000323CC7B234302F5C07404EB0014E36064
:1008500002F5C07303EB00131B6843F0010402F5BB
:10086000C07303EB00131C6010BD000010B50246FE
:10087000002321B1012907D002290FD109E0906896
:100880001D4C00EA04030BE090681C4C00EA0403D2
:1008900006E090681A4C00EA040301E0002300BF60
:1008A00000BF184C181BA34216D007DC83B16FF0B1
:1008B0008060184470B1022818D111E0B0F5007FB3
:1008C00010D0114C204448B1B0F5003F0ED10BE0E0
:1008D00002230DE000230BE0002309E0002307E0E2
:1008E000012305E0012303E0012301E0002300BF11
:1008F00000BFD8B210BD00000300000400030008D0
:1009000000000310000100080001FFF710B5FE48C9
:100910000068532816D1FD48C079A0B9FB488078FB
:10092000FA49497840EA0120F9490880F748807976
:10093000F8490870F5484079F7490870F34800789D
:10094000F64908709FE0F148C0790128FAD10421E6
:10095000F34800F097FE04014FF48041F04800F0A6
:1009600091FE44EAC0044FF40041ED4800F08AFED5
:1009700044EA80044FF40061EA4800F083FE44EA50
:1009800040044FF48051E74800F07CFE0443E0B29D
:10099000DE494978884238D1DC480078032806D1FE
:1009A000E148007840F02000DF4908702DE0D7488A
:1009B0000078042806D1DC48007820F02000DA49CD
:1009C000087022E0D148007805281ED1D64800786A
:1009D00040F04000D4490870CD480088401ED349FB
:1009E00008600020D2490880D2490880D249088096
:1009F000D2490880D2490880D2490880D24908806B
:100A0000D24908800120D2490870C048007900040A
:100A1000BE49497940EA0120BC4989790843CD495A
:100A200008600421BE4800F02DFE04014FF480410F
:100A3000BB4800F027FE44EAC0044FF40041B84828
:100A400000F020FE44EA80044FF40061B54800F055
:100A500019FE44EA40044FF48051B24800F012FEFF
:100A60002043401EBB490968C14001F0010050B15C
:100A7000B948007820F0F000B749087008460078BF
:100A800040F020000870A048006852287ED1B3488A
:100A90000078B3490870B3480078B04908709B48A3
:100AA0004078B0490870994840780004974989789F
:100AB00040EA01209549C9780843AB49086093484A
:100AC0008079AA4908809148C079A9490880A94835
:100AD0000088A94908808D480078A64908808B487D
:100AE0000078A5490988884204D0A4480088401CA1
:100AF000A24908809B480078012813D1002094491E
:100B000008708A4908609448007820F00F009249E4
:100B100008700846007840F00200087000209849EC
:100B200008601BE08F480078C0B900209549086034
:100B3000954908808848007820F00F0086490870A1
:100B40000846007840F002000870002080490870D4
:100B5000764908608D4908808D4908806F48007883
:100B600000287DD104216E4800F08CFD04014FF473
:100B700080416B4800F086FD44EAC0044FF4004118
:100B8000674800F07FFD44EA800400E0B4E24FF4DF
:100B90000061644800F076FD44EA40044FF480515F
:100BA000604800F06FFD0443E0B25A4909780844F8
:100BB000401E6F49098888422CDC0421584800F007
:100BC00061FD04014FF48041554800F05BFD44EAAB
:100BD000C0044FF40041524800F054FD44EA800440
:100BE0004FF400614F4800F04DFD44EA40044FF4DB
:100BF00080514C4800F046FD0443E0B24549097875
:100C00000844401C5A490988884203DB0120614995
:100C1000087038E00421424800F034FD04014FF42C
:100C200080413F4800F02EFD44EAC0044FF40041EB
:100C30003B4800F027FD44EA80044FF40061394846
:100C400000F020FD44EA40044FF48051354800F0A4
:100C500019FD0443E0B22F4909780844801C00E0E4
:100C6000C0E04349098888420DDA002049490870EC
:100C70003948007820F00F0037490870084600789E
:100C800040F0030008703448007800F00F0001289D
:100C900005D03148007800F00F0003287CD11B48B4
:100CA000807800F003000128F8D104211C4800F0EE
:100CB000E9FC04014FF48041194800F0E3FC44EAE8
:100CC000C0044FF40041164800F0DCFC44EA800404
:100CD0004FF40061134800F0D5FC44EA40044FF49F
:100CE0008051104800F0CEFC0443E0B20749C978B7
:100CF0008842D3D100202249086004484079034942
:100D0000097940EA012048E034000020380300203F
:100D1000B2020020B4020020B5020020B60200207A
:100D2000000C014000080140640000207402002013
:100D30005400002056000020580000205A000020D7
:100D40005C0000205E0000206000002062000020A7
:100D50007C020020700200206B0200208F02002025
:100D60008E020020900200209802002082020020C3
:100D700088020020AC020020AE020020B002002059
:100D80007802002054020020580200207E02002039
:100D9000800200207D020020E7E0EB490860EB487C
:100DA000007820F00F00E94908700846007840F00C
:100DB000020008700020E64908700120E54908702B
:100DC0000020E5490880E5490880E5490880E549B3
:100DD0000880E5490880E5490880E5490880E5493B
:100DE0000880C2E00421E44800F04CFC04014FF408
:100DF0008041E14800F046FC44EAC0044FF4004161
:100E0000DD4800F03FFC44EA80044FF40061DB4819
:100E100000F038FC44EA40044FF48051D74800F019
:100E200031FC0443E0B2401DD549098888427DDC8D
:100E30000421D14800F026FC04014FF48041CE4843
:100E400000F020FC44EAC0044FF40041CA4800F01E
:100E500019FC44EA80044FF40061C84800F012FC19
:100E600044EA40044FF48051C44800F00BFC0443B2
:100E7000E0B2C44909780844C34909780844C01C51
:100E8000BF490988884261DBB048007800F00F0054
:100E9000032805D0AD48007800F00F00002855D198
:100EA000BA48807800F0030001284FD10421B248ED
:100EB00000F0E8FB04014FF48041AF4800F0E2FB92
:100EC00044EAC0044FF40041AB4800F0DBFB44EAC5
:100ED00080044FF40061A94800F0D4FB44EA4004C8
:100EE0004FF48051A54800F0CDFB0443E0B2A74980
:100EF000C97888422AD10020A54908609348007823
:100F000020F00F00914908700846007840F0020078
:100F100008709E484179007901EB00208A490860F9
:100F200001208C49087000208B4900E00EE0088009
:100F30008A4908808A4908808A4908808A49088045
:100F40008A4908808A4908808A490880914800783F
:100F500006280AD17D48007820F00F007B490870F0
:100F60000846007840F0030008708848007800F0D8
:100F70000C0004280AD17548007820F0F00073496D
:100F800008700846007840F02000087004217A4874
:100F900000F078FB04014FF48041774800F072FBC9
:100FA00044EAC0044FF40041734800F06BFB44EA8C
:100FB00080044FF40061714800F064FB44EA40048F
:100FC0004FF480516D4800F05DFB0443E0B2401CDB
:100FD0006B49098888420BD15C48007820F0F0000A
:100FE0005A4908700846007840F01000087073E015
:100FF0000421614800F046FB04014FF480415E4843
:1010000000F040FB44EAC0044FF400415A4800F0AD
:1010100039FB44EA80044FF40061584800F032FB89
:1010200044EA40044FF48051544800F02BFB044341
:10103000E0B2801C5249098888420BD143480078AD
:1010400020F0F000414908700846007840F0100098
:10105000087041E00421484800F014FB04014FF4FB
:101060008041454800F00EFB44EAC0044FF40041C3
:10107000414800F007FB44EA80044FF400613F4818
:1010800000F000FB44EA40044FF480513B4800F07C
:10109000F9FA0443E0B23B4909780844401E384954
:1010A0000988884218D100203B4908603B490880E4
:1010B0003B4908803B490880274908802749088028
:1010C0002749088027490880274908802749088040
:1010D00027490880274908802E480078062832D101
:1010E0001A48007820F0F000184908700846007887
:1010F00040F02000087026E02B480068622822D1CA
:1011000022480078FA280DD120484078012802D1E1
:101110002649087017E01D484078A0B900202349EF
:10112000087010E019480078FB280CD11748407867
:10113000012802D11E49087005E01448407810B912
:1011400000201B49087010BD740200206B020020B3
:10115000600200207C020020540000205600002085
:10116000580000205A0000205C0000205E00002093
:101170006000002062000020000C014000080140D7
:1011800088020020B4020020B502002038030020AD
:101190007802002090020020540200205802002013
:1011A000800200207E020020340000204000002049
:1011B0004100002010B54FF4005000F0EFF868B186
:1011C0004FF4005000F02AF80021054800F034F8F0
:1011D000012240F22661034801F0BDF810BD000075
:1011E000440002400038014010B54FF0007000F09C
:1011F000D5F868B14FF0007000F010F800210548F4
:1012000000F01AF8012240F22661034801F0A3F829
:1012100010BD0000800002400044004000F08051FA
:1012200011B10349086001E00249486070470000BD
:10123000040402400000024021B1026842F00102B1
:10124000026004E002684FF6FE731A4002607047C5
:1012500001684FF6FE72114001600021016041609B
:101260008160C1604B49884208D14A4908394968C0
:1012700041F00F01474A083A51608AE0454914316C
:10128000884208D143490839496841F0F001414A90
:10129000083A51607DE03F492831884208D13D49F4
:1012A0000839496841F470613A4A083A516070E07F
:1012B00038493C31884208D136490839496841F4F7
:1012C0007041344A083A516063E0324950318842F3
:1012D00008D130490839496841F470212D4A083A4B
:1012E000516056E02B496431884208D129490839B8
:1012F000496841F47001274A083A516049E025499C
:101300007831884208D123490839496841F0706131
:10131000204A083A51603CE01F49884206D1011F2B
:10132000096841F00F01021F116032E01A491431BF
:10133000884208D11849091F096841F0F001164A8E
:10134000121F116025E014492831884208D1124942
:10135000091F096841F470610F4A121F116018E0FB
:101360000D493C31884208D10B49091F096841F4F5
:101370007041094A121F11600BE007495031884241
:1013800007D10549091F096841F47021024A121F5B
:101390001160704708000240080402400146002026
:1013A000002201F0805313B1054B1A6801E0054B90
:1013B0001A6802EA01030BB1012000E00020704727
:1013C000000402400000024010B50022026847F607
:1013D000F0739A430C6A8B6823430C6923434C696E
:1013E00023438C692343CC6923434C6A23438C6A8F
:1013F00023431A430260CB6843600B6883604B68E9
:10140000C36010BD704710B54FF4004000F04CF8B9
:1014100010BD000010B5022000F04CF860B3174872
:10142000007830BB022001F089F81548006800BB45
:1014300014480078E8B114480078D0B9134800780F
:10144000012816D11248007898B90E480078012872
:101450000FD010480078401C0E4908700E480078E4
:1014600020F00F000C4908700846007840F0010099
:101470000870022000F018F810BD0000B60200202D
:101480000401214290020020640000207D0200201F
:101490007C020020650200206B02002010B51020A5
:1014A00000F002F810BD000001490860704700001C
:1014B00014040140014600200022074B1B6803EA88
:1014C0000102054B14331B680B4013B10AB1012014
:1014D00000E0002070470000000401402DE9F041C9
:1014E000024600250026002000230024002791F852
:1014F00003C00CF00F0591F803C00CF0100CBCF108
:10150000000F03D091F802C04CEA050591F800C025
:10151000BCF1000F31D0146800202BE04FF0010C1B
:101520000CFA00F3B1F800C00CEA03069E4220D189
:1015300083004FF00F0C0CFA03F7BC4305FA03FCD1
:101540004CEA040491F803C0BCF1280F06D14FF017
:10155000010C0CFA00FCC2F814C00AE091F803C0B8
:10156000BCF1480F05D14FF0010C0CFA00FCC2F899
:1015700010C0401C0828D1D31460B1F800C0BCF1E1
:10158000FF0F34DD546800202EE000F1080C4FF00E
:10159000010808FA0CF3B1F800C00CEA03069E42F9
:1015A00021D183004FF00F0C0CFA03F7BC4305FA6E
:1015B00003FC4CEA040491F803C0BCF1280F05D1E8
:1015C00000F1080C08FA0CF8C2F8148091F803C076
:1015D000BCF1480F07D100F1080C4FF0010808FAE0
:1015E0000CF8C2F81080401C0828CED35460BDE827
:1015F000F0810000F0B50A460023002400210025F8
:1016000000F00046B6F1004F02D11D4EF16901E035
:101610001B4E7168C0F3034583B200F44016B6F563
:10162000401F08D121F07061154E766826F0706673
:10163000134F7E6012E000F48016B6F5801F06D1CD
:10164000032606FA05F4A14341F0706106E0460D59
:10165000360103FA06F6B14341F0706122B1460D3E
:10166000360103FA06F6314300F00046B6F1004FAA
:1016700002D1034EF16101E0014E7160F0BD000046
:10168000000001400246002093680B400BB101208E
:1016900000E000207047416170470161704700BF62
:1016A000FEE700000FB410B502987D281DD19DF80B
:1016B0001300012819D19DF81400B0B99DF8150048
:1016C00098B99DF8160080B99DF8170068B99DF883
:1016D000180050B99DF8190038B99DF81A0020B9C2
:1016E00002201649087000F067F802987F2822D17E
:1016F0009DF8130001281ED19DF8141010480068B1
:10170000000E814217D19DF815000D490968C1F3FB
:10171000074188420FD19DF8160009490988C1F395
:101720000721884207D19DF81700054909788842AA
:1017300001D101F063F910BC5DF814FB41000020F9
:101740003C0000202DE9F04186B00546884616464B
:1017500000240195029500208DF80C008DF80D00F5
:101760008DF80E6000BF06E018F804100DF10F00B0
:101770000155601C84B2B442F6DB01A90D48FEF7A6
:10178000E1FF0746002401E0601C84B239460948A5
:10179000FFF76CF8012803D040F6FF708442F3DBBA
:1017A00040F6FF70844203DB012006B0BDE8F08103
:1017B0000020FAE70064004008B502200123062259
:1017C000812100907B2000F02FFA08BD08B501218F
:1017D000032000F04FF901215C48FFF70BFF0121C6
:1017E000480200F077F901211D2000F073F9202054
:1017F000ADF8000004208DF8030003208DF80200EE
:1018000069465348FFF76AFE20215148FFF745FF1C
:101810000220ADF8000004208DF8030003208DF8AD
:10182000020069464A48FFF759FE02214848FFF77F
:1018300034FF1020ADF8000003208DF802001020C6
:101840008DF8030069464348FFF748FE10214148E0
:10185000FFF723FF2020ADF8000003208DF80200E1
:1018600010208DF8030069463A48FFF737FE202123
:101870003848FFF710FF4020ADF8000003208DF836
:10188000020010208DF8030069463248FFF726FE5B
:1018900040213048FFF701FF4FF48070ADF80000A1
:1018A00003208DF8020010208DF8030069462948B6
:1018B000FFF714FE4FF480712648FFF7EEFE4FF459
:1018C0008040ADF8000003208DF8020010208DF854
:1018D000030069461F48FFF701FE4FF480411D4891
:1018E000FFF7DBFE4FF40040ADF8000003208DF859
:1018F000020010208DF8030069461648FFF7EEFD40
:101900004FF400411348FFF7C6FE4FF48050ADF886
:10191000000010208DF8030003208DF802006946B6
:101920000B48FFF7DBFD4FF480510948FFF7B5FE88
:1019300001210648FFF75EFE0121082000F0CAF8E9
:101940000121042000F0C6F808BD000000023000AC
:1019500000080140000C014010B5044614B10120FC
:101960000D4908700C48007868B10C48006850B9FF
:101970000A2000F0E3FD00200749087007480068CE
:1019800038B9012010BD05480068012801D102497D
:1019900008700020F6E700002E000020140121420C
:1019A00070B506460D46144629466A2000F094FD9F
:1019B00021466C2000F090FD70BD00BFFEE770472F
:1019C00070B5002100230F22C47804B3154C24689D
:1019D00004F4E064C4F5E064210AC1F10403CA40E0
:1019E000447804FA03F184781440214309010E4C31
:1019F0000678A155047804F01F050124AC40057851
:101A00006D11AD0005F1E025C5F8004109E004784D
:101A100004F01F050124AC40044D0678761145F80A
:101A2000264070BD0CED00E000E400E080E100E045
:101A300002490143024A1160704700000000FA05A4
:101A40000CED00E00349096841EA8001014A116098
:101A50007047000000700040704700000146002001
:101A6000034A506820F4404008435060704700002B
:101A70000010024029B1064A52690243044B5A61E0
:101A800004E0034A52698243014B5A6170470000E7
:101A90000010024029B1064AD2690243044BDA61C0
:101AA00004E0034AD2698243014BDA6170470000C7
:101AB0000010024029B1064A12690243044B1A6120
:101AC00004E0034A12698243014B1A617047000027
:101AD0000010024029B1064A92690243044B9A6100
:101AE00004E0034A92698243014B9A617047000007
:101AF0000010024029B1064AD2680243044BDA6062
:101B000004E0034AD2688243014BDA607047000068
:101B10000010024030B500210022002400232D4D8A
:101B20006D6805F00C0121B1042905D0082923D1E5
:101B300005E0294D056022E0274D05601FE0254D99
:101B40006D6805F47012234D6D6805F4803402252C
:101B500005EB92421CB9214D554305600BE01D4D2C
:101B60006D6805F400351DB11C4D5543056002E05C
:101B7000194D5543056002E0174D056000BF00BFD9
:101B8000144D6D6805F0F0010909154D6B5C056891
:101B9000DD4045600F4D6D6805F4E061090A104DA8
:101BA0006B5C4568DD4085600A4D6D6805F46051E9
:101BB000C90A0B4D6B5C4568DD40C560054D6D681D
:101BC00005F44041890B074D6B5CC568B5FBF3F527
:101BD000056130BD0010024000127A0000093D008E
:101BE0002203002032030020704700000FB40B4A8C
:101BF000009911609DF8081051B9002006E00DF120
:101C00000B01095C064A1154411CC8B20828F6DBD6
:101C10000121044A117004B0704700003400002014
:101C200038030020310000202DE9FC4107460C4616
:101C300015461E46DDF820800020009001901748D0
:101C40000078012803D1FF201549086003E01548FA
:101C50000078134908608DF8004011480068000EB4
:101C60008DF801000E480068000C8DF802000C4849
:101C70000088000A8DF80300094800788DF80400F8
:101C80008DF805508DF806608DF8078008226946AA
:101C90003846FFF757FDBDE8FC81000040000020FA
:101CA0003C0000202400002010B500F001F810BD19
:101CB0000CB50020019000903348006840F480305B
:101CC0003149086000BF3048006800F400300090DF
:101CD0000198401C0190009818B90198B0F5A06FC8
:101CE000F1D12948006800F4003010B101200090C3
:101CF00001E0002000900098012843D123480068AB
:101D000040F01000214908600846006820F00300F8
:101D100008600846006840F0020008601A48406801
:101D2000194948600846406848600846406840F4E1
:101D3000806048600846406820F47C10486008468F
:101D4000406840F4E81048600846006840F0807041
:101D5000086000BF0C48006800F000700028F9D04F
:101D60000948406820F00300074948600846406879
:101D700040F00200486000BF0348406800F00C00DB
:101D80000828F9D10CBD00000010024000200240DC
:101D900010B508210C48FFF780FC00F029FE4FF435
:101DA00000410A48FFF779FC00F022FE4FF40041A1
:101DB0000648FFF770FC00F01BFE08210248FFF701
:101DC0006AFC00F015FE10BD000C01400008014047
:101DD00010B54FF400410948FFF75DFC00F008FE24
:101DE00008210748FFF759FC00F002FE4FF40041BC
:101DF0000248FFF752FC00F0FBFD10BD0008014057
:101E0000000C0140042808D14FF0E021096941F09D
:101E100004014FF0E022116107E04FF0E021096971
:101E200021F004014FF0E02211617047144800884E
:101E3000401C1349088008460088B0F57A7F0FDB04
:101E4000002008800F480088401C0E490880084682
:101E500000884FF6FF71884202DB002009490880A4
:101E600009480088401C084908800846008842F25A
:101E70001071884202DB002003490880704700008F
:101E8000F4020020F60200200C00002010B51348D8
:101E9000006840F001001149086008464068104998
:101EA00008400E494860084600680E4908400B4942
:101EB00008600846006820F48020086008464068F2
:101EC00020F4FE0048604FF41F008860FFF7ECFE2E
:101ED0004FF000600449086010BD0000001002408F
:101EE0000000FFF8FFFFF6FE08ED00E010B51A490C
:101EF00048691A4900F0FEFE24D217488068401C49
:101F00001549886008468068B0F57A7F1DDB01209E
:101F100088700020124908700C20124908700F20A8
:101F2000114908704FF496600B4988600F4B0E4CB6
:101F300024781A5D0B4C2478195D0D4B5878FFF707
:101F40002FFD02E000200449886000F071FB0121B0
:101F5000880700F00FF810BDBC0200209A99494094
:101F60000000002068020020690200202F020020EB
:101F700025020020CA430282704721B1028842F044
:101F80000102028004E002884FF6FE731A400280CC
:101F9000704702460020138A0B400BB1012000E07D
:101FA000002070471AB183890B43838102E0838943
:101FB0008B43838170470000002202881D4B9842AA
:101FC0000ED01D4B98420BD0B0F1804F08D01B4B68
:101FD000984205D01A4B984202D01A4B984204D12D
:101FE0004FF68F731A404B881A43174B984207D00D
:101FF000164B984204D04FF6FF431A40CB881A4341
:1020000002808B8883850B8803850A4B98420BD00E
:10201000094B984208D00E4B984205D00D4B984280
:1020200002D00D4B984201D10B7A038601238382A3
:1020300070470000002C01400034014000040040C3
:1020400000080040000C0040001000400014004058
:1020500000400140004401400048014070B5044682
:1020600000252BE008211F48FFF715FB00F0C0FCFE
:1020700004F0800028B14FF400411B48FFF70DFB2E
:1020800004E04FF400411848FFF705FB00F0B0FCF6
:1020900008211448FFF701FB00F0AAFC08211148B1
:1020A000FFF7F9FA00F0A4FC6006040E08210D48C1
:1020B000FFF7F1FA00F09CFC681CC5B2082DD1DBDB
:1020C0004FF400410848FFF7E6FA00F091FC0821C0
:1020D0000448FFF7E2FA00F08BFC08210148FFF703
:1020E000DAFA70BD000C01400008014010B540F262
:1020F00025511F4800F005F930B31D4800F0BCF928
:10210000C4B221461B4800F0BCF91B48008800F40B
:102110000040C8B91848008800F4804060B10A2C1B
:1021200003D000201449088020E01348008840F4C0
:1021300000401149088019E00D2C06D10E48008896
:1021400040F480400C49088010E00B480088C0F340
:102150000D000A490C5408480088401C06490880B4
:1021600008460088C72801DD0020088010BD000057
:102170000038014000440040080300209C03002078
:1021800010B540F22551224800F0BBF800283ED09F
:102190001F4800F071F9C4B221461E4800F071F9E1
:1021A0001D48008800F4004058BB1B48008800F41C
:1021B000804060B10A2C03D000201749088020E03D
:1021C0001548008840F400401349088019E00D2CA0
:1021D00006D11148008840F480400F49088010E083
:1021E0000D480088C0F30D000C490C540A480088C3
:1021F000401C0949088008460088C72801DD0020E6
:102200000880012240F22551014800F0A4F810BDD9
:102210000044004000380140080300209C030020D7
:1022200001F40072B2F5007F00D100BFCA43028002
:10223000704721B1828942F40052828104E0828990
:102240004DF6FF731A4082817047000010B50446B6
:102250002048844209D101218803FFF74BFC00216B
:102260004FF48040FFF746FC32E01B48844209D11E
:1022700001214804FFF71EFC00214FF40030FFF756
:1022800019FC25E01548844209D101218804FFF793
:1022900011FC00214FF48020FFF70CFC18E01048DF
:1022A000844209D10121C804FFF704FC00214FF446
:1022B0000020FFF7FFFB0BE00A48844208D1012110
:1022C0000805FFF7F7FB00214FF48010FFF7F2FB42
:1022D00010BD0000003801400044004000480040AC
:1022E000004C00400050004002460020B1F5007F45
:1022F00000D100BF13880B400BB1012000E000208B
:10230000704770B50246002400230025002040F6E7
:102310006A16B14200D100BFC1F3421501F01F039C
:10232000012606FA03F3012D02D19689334006E017
:10233000022D02D1168A334001E0968A33400C12F6
:10234000012606FA04F41688344013B10CB10120BA
:1023500000E0002070BDF0B50346002400260025F3
:10236000002040F66A17B94200D100BF1846C1F3F9
:10237000421401F01F06012707FA06F5012C01D1CE
:102380000C3004E0022C01D1103000E014301AB1FE
:1023900007682F43076002E00768AF430760F0BD9E
:1023A0002DE9F04786B005460E460024A24600BF40
:1023B000A1460027B08900B100BF2F462C8A4CF6F9
:1023C000FF700440F08804432C82AC894EF6F31071
:1023D0000440B08831890843718908430443AC81C3
:1023E000AC8A4FF6FF400440B0890443AC8201A898
:1023F000FFF790FB1F48874202D1DDF810A001E0F3
:10240000DDF80CA0A88900F4004040B10AEBCA0036
:1024100000EB0A1031684900B0FBF1F807E00AEB65
:10242000CA0000EB0A1031688900B0FBF1F86420A3
:10243000B8FBF0F004012009642101FB1089A88990
:1024400000F4004040B1322000EBC900B0FBF1F0D5
:1024500000F00700044308E0322000EB091064217B
:10246000B0FBF1F000F00F0004432C8106B0BDE892
:10247000F08700000038014001468888C0F308005A
:102480007047C1F3080282807047000000B587B032
:1024900002AA00210C48FEF7DDF80698009002A879
:1024A0000FC8FFF7FFF80698009002A80FC8FFF7C3
:1024B0009DFBFEF72BFA0120044908700020044917
:1024C000088007B000BD0000006400403800002014
:1024D0003A00002000BFFEE770B505460C46FFF746
:1024E00057FC2846FFF7BAFD2046FFF7B7FDFFF778
:1024F0006FFC70BD00BF704710B56FF00400FFF7B0
:1025000081FC0A4800680A49B0FBF1F009490870EB
:102510000846007800EB4001C1EBC0104FF6FF7198
:1025200001EAC0000449088010BD0000100000202E
:1025300000127A00F0020020F20200200146114A47
:1025400012884A434FF0E0235A6100229A611A46EA
:10255000126942F001021A6100BF4FF0E0221069D7
:1025600000F001021AB100F48032002AF5D04FF0D9
:10257000E022126922F001024FF0E0231A610022EA
:102580009A617047F20200200146114A12784A43CC
:102590004FF0E0235A6100229A611A46126942F014
:1025A00001021A6100BF4FF0E022106900F0010241
:1025B0001AB100F48032002AF5D04FF0E0221269FF
:1025C00022F001024FF0E0231A6100229A61704765
:1025D000F00200204FF4A060FFF72AFAFFF78CFF0B
:1025E000FFF7F4F84FF4E13000F0C0FA4FF4E130B7
:1025F00000F060FA40F2CF21632000F01FFAFDF7EF
:1026000087FF01210807FFF745FA0CE00649C86873
:10261000064900F0EEFB06D801210807FFF73AFA59
:102620000120FFF70FFAF1E7BC02002000C8AF4716
:1026300010B501218807FFF7ACFC012871D1E448EF
:102640008069401CE24988610846807820B90020F2
:10265000FFF782F9DF490870DD48806942F6E061E2
:1026600088420EDB0020DC490860D948806943F2CB
:10267000B061884205DD0020D54988610120D64936
:1026800008600020FFF768F9D24908700846007812
:102690000D287DD2DFE800F0070D192546678AAACC
:1026A000CBF0EEEDEC004FF48071CC48FDF7ADFDC2
:1026B00067E1C7484078401CC549487008464078E3
:1026C000082801DD082048705BE1C1484078401EC1
:1026D000BF49487008464078012801DA0120487057
:1026E0004FE1FE20BD490870B1204870032088707A
:1026F000B7484078C8700120087148710846C07812
:1027000009794840B54949794840B4498871EF2072
:10271000C8711020AE4908700821B04800F0BCF91B
:102720002FE154E1FE20AD490870B120487003202C
:102730008870A7484078C87002200871012048714D
:102740000846C07809794840A44949794840A349D6
:102750008871EF20C87110209D49087008219F489A
:1027600000F09AF90DE1FE209C490870B1204870F4
:102770000320887096484078C870012008710220B4
:1027800048710846C078097948409449497900E081
:10279000F6E0484091498871EF20C87103208C49C8
:1027A000087008218D4800F077F9EAE0FE208B4997
:1027B0000870B12048700320887085484078C87040
:1027C0000220087148710846C07809794840834959
:1027D0004979484081498871EF20C87103207C49BC
:1027E000087008217D4800F057F9CAE0FE207B49B7
:1027F0000870B12048700320887075484078C87010
:1028000001200871032048710846C07809794840C2
:1028100072494979484071498871EF20C871082090
:102820006B49087008216D4800F036F9A9E0FE20D8
:102830006A490870B1204870032088706448407865
:10284000C87002200871032048710846C0780979D1
:10285000484062494979484060498871EF20C87111
:1028600008205B49087008215C4800F015F988E0F1
:1028700065E043E021E0FFE7FE2058490870B12001
:1028800048700320887052484078C8700120087151
:10289000042048710846C078097948404F49497971
:1028A00048404E498871EF20C8710D204849087092
:1028B00008214A4800F0F0F863E0FE20474908701C
:1028C000B12048700320887041484078C8700220C9
:1028D0000871042048710846C078097948403F498A
:1028E000497948403D498871EF20C8710D20384929
:1028F00008700821394800F0CFF842E0FE2037493F
:102900000870B12048700320887031484078C87042
:1029100001200871052048710846C07809794840AF
:102920002E49497948402D498871EF20C8710C2003
:10293000274908700821294800F0AEF821E0FE2060
:1029400026490870B12048700320887020484078DC
:10295000C87002200871052048710846C0780979BE
:1029600048401E49497948401C498871EF20C87188
:102970000320174908700821184800F08DF800E07E
:1029800000BF00BF1348007840B91149C8684FF034
:102990007E5100F041F90E49C86005E00D4800780D
:1029A00010B100200A49C8600948806932280ED158
:1029B0000B4B0C4C24781A5D0B4B0C4C2478195D96
:1029C000074B5878FEF7ECFF00200149886110BDE5
:1029D000BC02002000000020B0012142AC0C00200D
:1029E00025020020690200202F020020680200203A
:1029F00010B53220FFF7C8FD10BD00004FF6FF7183
:102A000000E000BF081EA1F10101FAD1012080F30E
:102A1000138800BF00BF0748006800F4E060064A62
:102A20001043001D034A1060BFF34F8F00BF00BF6B
:102A3000FEE700000CED00E00000FA057FB505465A
:102A40000C4601210846FFF725F8ADF80850ADF80F
:102A500004400020ADF80A00ADF8060001A94FF0CF
:102A60008040FFF7A9FA012211469007FFF79AFA72
:102A700001218807FFF781FA1C208DF80000022051
:102A80008DF8010003208DF8020001208DF803006D
:102A90006846FEF795FF7FBD70B505460E460024DB
:102AA00004E0285D00F0A4F8601C84B2B442F8DBB6
:102AB00070BD000010B586B0044601214804FEF741
:102AC000E9FF01210420FFF705F82648FFF7BEFBC8
:102AD0000420ADF8140003208DF8160018208DF89E
:102AE000170005A92048FEF7F9FC0820ADF81400EE
:102AF00003208DF8160004208DF8170005A91A4848
:102B0000FEF7ECFC01940020ADF80800ADF80A00D7
:102B1000ADF80C00ADF810000C20ADF80E0001A9C6
:102B20001048FFF73DFC012240F225510D48FFF708
:102B300012FC01210B48FFF77CFB4FF4E060FEF72D
:102B400077FF26208DF8000003208DF801008DF816
:102B5000020001208DF803006846FEF731FF06B041
:102B600010BD0000004400400008014010B586B0D0
:102B70000446012144F20400FEF7ACFF4FF48060EC
:102B8000ADF8140004208DF8170005A91648FEF7CB
:102B9000A5FC25208DF8000003208DF801008DF89C
:102BA000020001208DF803006846FEF709FF01943A
:102BB0000020ADF80800ADF80A00ADF80C00ADF843
:102BC00010000C20ADF80E0001A90848FFF7E8FB43
:102BD000012240F225510548FFF7BDFB01210348C2
:102BE000FFF727FB06B010BD000801400038014088
:102BF00010B5044621460748FFF743FC00BF80217B
:102C00000448FFF771FB0128F9D140210148FFF783
:102C100007FB10BD0044004090EA010F48BF81F05F
:102C2000004100F11E81421A3CBF801A89184FEA08
:102C3000D0524FF07F4C1CEA410FA2EBD15318BF8A
:102C40009CEA026F00F03B804FF0004C4CEA002001
:102C50004CEA012121FA03FC10EB0C0C1ED202F10C
:102C6000FF325FEA1C2040EBC25038BF70471CF0B7
:102C70007F0F4FEA400C18BFBCF17F4F38BF704741
:102C8000C3F12003994008BF20F00100BCF17F4F41
:102C900038BF7047A0F1C04000F0A6B84FEA3C0032
:102CA000000A40EBC25028BF1CF0FF0F4FEA400C57
:102CB000E6D018BFBCF17F4F38BF7047EAE79CEA07
:102CC000026F05D010EA5C0F08BF00F000407047AB
:102CD00010B500F043F800BF64FBBE3E401058BF83
:102CE000C0F14040491058BFC1F140418142EFF36B
:102CF0000080704750EA010C00F113801CF5000FB2
:102D000058BFBCF5000F01D48842704707D710F5B3
:102D1000000F58BF11F5000F15D488427047894243
:102D200070471CF5000F04D5BCF5000FF7D58142A4
:102D300070474FF0807C1CEB400F38BF1CEB410FFD
:102D400001D28142704710B500F008F89224490082
:102D50004FF000504FF08051FFF7C0BF0EF1020E50
:102D60002EF0030E5EF8044B244204D44FEA4102D5
:102D7000B2F17F4F11D84FEA4003B3F17F4F0CD827
:102D80000ED14FEAD07CB2F17F4F0CEB4C0C0CF122
:102D9000020C08BF4CEBD17C04E04FF0080C01E0C2
:102DA0004FEAD17C0CEB4C0324FA03F404F0070443
:102DB000B4F1040C06D20EEB840CBDE810404CF0CC
:102DC000010C6047DFE80CF0070802024FF00040FA
:102DD000A0F5800010BD0846420018BFD2F18072F5
:102DE00088BF00F0004010BDFF2141EAD050C0056F
:102DF000704751EA000C00F113801CF5000F58BF1A
:102E0000BCF5000F01D48142704707D711F5000FC0
:102E100058BF10F5000F15D48142704789427047A2
:102E20001CF5000F04D5BCF5000FF7D5884270479C
:102E30004FF0807C1CEB410F38BF1CEB400F01D2E0
:102E40008842704780EA010081EA000180EA0100BF
:102E5000FFF779BF90EA010F48BF81F000413FF5CD
:102E6000E2AE421A04D882F00042A0EB0200114404
:102E70004FEAD0524FF07F4C1CEA410FA2EBD153E6
:102E800018BF9CEA026F4AD04FF0004C4CEA002079
:102E90004CEA012121FA03FCB0EB0C0C0FD412F028
:102EA000FE0F36D05FEA4C001DD5001240EBC25039
:102EB00038BF70471CF03F0F18BF70470BE0A2F1FE
:102EC00001025FEA1C2040EBC25038BF70471CF083
:102ED0007F0F18BF7047C3F12003994014BF401EF5
:102EE00020F00100704780084FEA122308BF7047A6
:102EF000B0FA80FCA2EB0C02CCF1280C60FA0CF0CA
:102F000093EA122F04BF00EBC25070474FEAC37020
:102F10007047130A5FEADC1008BF7047F6E79CEAC7
:102F2000026F04D010EA5C0F08BF0020704710B594
:102F3000FFF714FF40DFF63E81F0004070470000CD
:102F4000602F00080000002038030000280100085E
:102F50008430000838030020D820000084010008D5
:102F6000011184A24A04A00901020304060708090A
:102F70000238011BF010012AFF050215F01B0F0497
:102F8000012AFF0502130F18094040405F555555AF
:102F900075041A5F0C091121080C11200F094989C9
:102FA000790909090F201F112FFE02424ACA4A035C
:102FB00004134202FE000E14FF40504C4340404FA9
:102FC00050505C40FF1BF888012AFF050215F81BD2
:102FD0001F08012A7F200B109F80E23B80820100A6
:102FE0000916E2A2928A86828080041840807F17A8
:102FF0002424A4FEA3221B22CCAA01141508060136
:10300000FF2B0104010511FF0202025808101010E5
:10301000FF109008C3021108080F100444827F01BA
:10302000808040432C10284681A0100B3F065B4F48
:10303000666D7D077F6F001B3B777C395E79713D44
:10304000760F0E753837545C73673149783E1C7EB5
:10305000646E59022C0F124D1C0C0B010631022418
:1030600001C00B2041CDCCCC3C6F12833A0A1D012C
:103070003CD2642D0102030404200906070809025A
:04308000040608003A
:04000005080000ED02
:00000001FF
